{
  "contractName": "ZombieFeeding",
  "abi": [
    {
      "anonymous": false,
      "inputs": [
        {
          "indexed": false,
          "internalType": "uint256",
          "name": "zombieId",
          "type": "uint256"
        },
        {
          "indexed": false,
          "internalType": "string",
          "name": "name",
          "type": "string"
        },
        {
          "indexed": false,
          "internalType": "uint256",
          "name": "dna",
          "type": "uint256"
        }
      ],
      "name": "NewZombie",
      "type": "event"
    },
    {
      "anonymous": false,
      "inputs": [
        {
          "indexed": true,
          "internalType": "address",
          "name": "previousOwner",
          "type": "address"
        },
        {
          "indexed": true,
          "internalType": "address",
          "name": "newOwner",
          "type": "address"
        }
      ],
      "name": "OwnershipTransferred",
      "type": "event"
    },
    {
      "inputs": [
        {
          "internalType": "string",
          "name": "_name",
          "type": "string"
        }
      ],
      "name": "createRandomZombie",
      "outputs": [],
      "stateMutability": "nonpayable",
      "type": "function"
    },
    {
      "inputs": [],
      "name": "isOwner",
      "outputs": [
        {
          "internalType": "bool",
          "name": "",
          "type": "bool"
        }
      ],
      "stateMutability": "view",
      "type": "function",
      "constant": true
    },
    {
      "inputs": [],
      "name": "owner",
      "outputs": [
        {
          "internalType": "address",
          "name": "",
          "type": "address"
        }
      ],
      "stateMutability": "view",
      "type": "function",
      "constant": true
    },
    {
      "inputs": [],
      "name": "renounceOwnership",
      "outputs": [],
      "stateMutability": "nonpayable",
      "type": "function"
    },
    {
      "inputs": [
        {
          "internalType": "address",
          "name": "newOwner",
          "type": "address"
        }
      ],
      "name": "transferOwnership",
      "outputs": [],
      "stateMutability": "nonpayable",
      "type": "function"
    },
    {
      "inputs": [
        {
          "internalType": "uint256",
          "name": "",
          "type": "uint256"
        }
      ],
      "name": "zombieToOwner",
      "outputs": [
        {
          "internalType": "address",
          "name": "",
          "type": "address"
        }
      ],
      "stateMutability": "view",
      "type": "function",
      "constant": true
    },
    {
      "inputs": [
        {
          "internalType": "uint256",
          "name": "",
          "type": "uint256"
        }
      ],
      "name": "zombies",
      "outputs": [
        {
          "internalType": "string",
          "name": "name",
          "type": "string"
        },
        {
          "internalType": "uint256",
          "name": "dna",
          "type": "uint256"
        },
        {
          "internalType": "uint32",
          "name": "level",
          "type": "uint32"
        },
        {
          "internalType": "uint32",
          "name": "readyTime",
          "type": "uint32"
        },
        {
          "internalType": "uint16",
          "name": "winCount",
          "type": "uint16"
        },
        {
          "internalType": "uint16",
          "name": "lossCount",
          "type": "uint16"
        }
      ],
      "stateMutability": "view",
      "type": "function",
      "constant": true
    },
    {
      "inputs": [
        {
          "internalType": "address",
          "name": "_address",
          "type": "address"
        }
      ],
      "name": "setKittyContractAddress",
      "outputs": [],
      "stateMutability": "nonpayable",
      "type": "function"
    },
    {
      "inputs": [
        {
          "internalType": "uint256",
          "name": "_zombieId",
          "type": "uint256"
        },
        {
          "internalType": "uint256",
          "name": "_kittyId",
          "type": "uint256"
        }
      ],
      "name": "feedOnKitty",
      "outputs": [],
      "stateMutability": "nonpayable",
      "type": "function"
    }
  ],
  "bytecode": "0x60806040526010600155600154600a6200001a91906200014e565b600255620151806003553480156200003157600080fd5b50336000806101000a81548173ffffffffffffffffffffffffffffffffffffffff021916908373ffffffffffffffffffffffffffffffffffffffff16021790555060008054906101000a900473ffffffffffffffffffffffffffffffffffffffff1673ffffffffffffffffffffffffffffffffffffffff16600073ffffffffffffffffffffffffffffffffffffffff167f8be0079c531659141344cd1fd0a4f28419497f9722a3daafe3b4186f6b6457e060405160405180910390a3620002d1565b6000808291508390505b600185111562000145578086048111156200011d576200011c62000295565b5b60018516156200012d5780820291505b80810290506200013d85620002c4565b9450620000fd565b94509492505050565b60006200015b826200028b565b915062000168836200028b565b9250620001977fffffffffffffffffffffffffffffffffffffffffffffffffffffffffffffffff84846200019f565b905092915050565b600082620001b1576001905062000284565b81620001c1576000905062000284565b8160018114620001da5760028114620001e5576200021b565b600191505062000284565b60ff841115620001fa57620001f962000295565b5b8360020a91508482111562000214576200021362000295565b5b5062000284565b5060208310610133831016604e8410600b8410161715620002555782820a9050838111156200024f576200024e62000295565b5b62000284565b620002648484846001620000f3565b925090508184048111156200027e576200027d62000295565b5b81810290505b9392505050565b6000819050919050565b7f4e487b7100000000000000000000000000000000000000000000000000000000600052601160045260246000fd5b60008160011c9050919050565b6114e580620002e16000396000f3fe608060405234801561001057600080fd5b50600436106100935760003560e01c8063715018a611610066578063715018a6146101355780637bff0a011461013f5780638da5cb5b1461015b5780638f32d59b14610179578063f2fde38b1461019757610093565b806317a7f4cc146100985780632052465e146100b4578063528b7b8f146100e95780635f4623f114610119575b600080fd5b6100b260048036038101906100ad9190610efb565b6101b3565b005b6100ce60048036038101906100c99190610ed2565b6102e0565b6040516100e09695949392919061108e565b60405180910390f35b61010360048036038101906100fe9190610ed2565b6103f0565b6040516101109190611058565b60405180910390f35b610133600480360381019061012e9190610d8d565b610423565b005b61013d610478565b005b61015960048036038101906101549190610e91565b610547565b005b6101636105c8565b6040516101709190611058565b60405180910390f35b6101816105f1565b60405161018e9190611073565b60405180910390f35b6101b160048036038101906101ac9190610d8d565b610648565b005b6000600760009054906101000a900473ffffffffffffffffffffffffffffffffffffffff1673ffffffffffffffffffffffffffffffffffffffff1663e98b7f4d836040518263ffffffff1660e01b815260040161021091906110f6565b6101406040518083038186803b15801561022957600080fd5b505afa15801561023d573d6000803e3d6000fd5b505050506040513d601f19601f820116820180604052508101906102619190610db6565b909192939495969798509091929394959697509091929394959650909192939495509091929394509091929350909192509091509050809150506102db83826040518060400160405280600581526020017f6b69747479000000000000000000000000000000000000000000000000000000815250610665565b505050565b600481815481106102f057600080fd5b90600052602060002090600302016000915090508060000180546103139061133a565b80601f016020809104026020016040519081016040528092919081815260200182805461033f9061133a565b801561038c5780601f106103615761010080835404028352916020019161038c565b820191906000526020600020905b81548152906001019060200180831161036f57829003601f168201915b5050505050908060010154908060020160009054906101000a900463ffffffff16908060020160049054906101000a900463ffffffff16908060020160089054906101000a900461ffff169080600201600a9054906101000a900461ffff16905086565b60056020528060005260406000206000915054906101000a900473ffffffffffffffffffffffffffffffffffffffff1681565b61042b6105f1565b61043457600080fd5b80600760006101000a81548173ffffffffffffffffffffffffffffffffffffffff021916908373ffffffffffffffffffffffffffffffffffffffff16021790555050565b6104806105f1565b61048957600080fd5b600073ffffffffffffffffffffffffffffffffffffffff1660008054906101000a900473ffffffffffffffffffffffffffffffffffffffff1673ffffffffffffffffffffffffffffffffffffffff167f8be0079c531659141344cd1fd0a4f28419497f9722a3daafe3b4186f6b6457e060405160405180910390a360008060006101000a81548173ffffffffffffffffffffffffffffffffffffffff021916908373ffffffffffffffffffffffffffffffffffffffff160217905550565b6000600660003373ffffffffffffffffffffffffffffffffffffffff1673ffffffffffffffffffffffffffffffffffffffff168152602001908152602001600020541461059357600080fd5b600061059e82610828565b90506064816105ad919061136c565b816105b8919061125e565b90506105c4828261086d565b5050565b60008060009054906101000a900473ffffffffffffffffffffffffffffffffffffffff16905090565b60008060009054906101000a900473ffffffffffffffffffffffffffffffffffffffff1673ffffffffffffffffffffffffffffffffffffffff163373ffffffffffffffffffffffffffffffffffffffff1614905090565b6106506105f1565b61065957600080fd5b61066281610add565b50565b826005600082815260200190815260200160002060009054906101000a900473ffffffffffffffffffffffffffffffffffffffff1673ffffffffffffffffffffffffffffffffffffffff163373ffffffffffffffffffffffffffffffffffffffff16146106d157600080fd5b60006004858154811061070d577f4e487b7100000000000000000000000000000000000000000000000000000000600052603260045260246000fd5b9060005260206000209060030201905061072681610bd4565b61072f57600080fd5b6002548461073d919061136c565b93506000600285836001015461075391906111d7565b61075d919061122d565b905060405160200161076e90611043565b6040516020818303038152906040528051906020012084604051602001610795919061102c565b6040516020818303038152906040528051906020012014156107d85760636064826107c0919061136c565b826107cb919061125e565b6107d591906111d7565b90505b6108176040518060400160405280600681526020017f4e6f4e616d6500000000000000000000000000000000000000000000000000008152508261086d565b61082082610bfb565b505050505050565b6000808260405160200161083c919061102c565b6040516020818303038152906040528051906020012060001c905060025481610865919061136c565b915050919050565b60046040518060c00160405280848152602001838152602001600163ffffffff168152602001600354426108a191906111d7565b63ffffffff168152602001600061ffff168152602001600061ffff1681525090806001815401808255809150506001900390600052602060002090600302016000909190919091506000820151816000019080519060200190610905929190610c2e565b506020820151816001015560408201518160020160006101000a81548163ffffffff021916908363ffffffff16021790555060608201518160020160046101000a81548163ffffffff021916908363ffffffff16021790555060808201518160020160086101000a81548161ffff021916908361ffff16021790555060a082015181600201600a6101000a81548161ffff021916908361ffff1602179055505050600060016004805490506109ba919061125e565b9050336005600083815260200190815260200160002060006101000a81548173ffffffffffffffffffffffffffffffffffffffff021916908373ffffffffffffffffffffffffffffffffffffffff1602179055506001600660003373ffffffffffffffffffffffffffffffffffffffff1673ffffffffffffffffffffffffffffffffffffffff16815260200190815260200160002054610a5a91906111d7565b600660003373ffffffffffffffffffffffffffffffffffffffff1673ffffffffffffffffffffffffffffffffffffffff168152602001908152602001600020819055507f88f026aacbbecc90c18411df4b1185fd8d9be2470f1962f192bf84a27d0704b7818484604051610ad093929190611111565b60405180910390a1505050565b600073ffffffffffffffffffffffffffffffffffffffff168173ffffffffffffffffffffffffffffffffffffffff161415610b1757600080fd5b8073ffffffffffffffffffffffffffffffffffffffff1660008054906101000a900473ffffffffffffffffffffffffffffffffffffffff1673ffffffffffffffffffffffffffffffffffffffff167f8be0079c531659141344cd1fd0a4f28419497f9722a3daafe3b4186f6b6457e060405160405180910390a3806000806101000a81548173ffffffffffffffffffffffffffffffffffffffff021916908373ffffffffffffffffffffffffffffffffffffffff16021790555050565b6000428260020160049054906101000a900463ffffffff1663ffffffff1611159050919050565b60035442610c0991906111d7565b8160020160046101000a81548163ffffffff021916908363ffffffff16021790555050565b828054610c3a9061133a565b90600052602060002090601f016020900481019282610c5c5760008555610ca3565b82601f10610c7557805160ff1916838001178555610ca3565b82800160010185558215610ca3579182015b82811115610ca2578251825591602001919060010190610c87565b5b509050610cb09190610cb4565b5090565b5b80821115610ccd576000816000905550600101610cb5565b5090565b6000610ce4610cdf84611180565b61114f565b905082815260208101848484011115610cfc57600080fd5b610d078482856112f8565b509392505050565b600081359050610d1e8161146a565b92915050565b600081519050610d3381611481565b92915050565b600082601f830112610d4a57600080fd5b8135610d5a848260208601610cd1565b91505092915050565b600081359050610d7281611498565b92915050565b600081519050610d8781611498565b92915050565b600060208284031215610d9f57600080fd5b6000610dad84828501610d0f565b91505092915050565b6000806000806000806000806000806101408b8d031215610dd657600080fd5b6000610de48d828e01610d24565b9a50506020610df58d828e01610d24565b9950506040610e068d828e01610d78565b9850506060610e178d828e01610d78565b9750506080610e288d828e01610d78565b96505060a0610e398d828e01610d78565b95505060c0610e4a8d828e01610d78565b94505060e0610e5b8d828e01610d78565b935050610100610e6d8d828e01610d78565b925050610120610e7f8d828e01610d78565b9150509295989b9194979a5092959850565b600060208284031215610ea357600080fd5b600082013567ffffffffffffffff811115610ebd57600080fd5b610ec984828501610d39565b91505092915050565b600060208284031215610ee457600080fd5b6000610ef284828501610d63565b91505092915050565b60008060408385031215610f0e57600080fd5b6000610f1c85828601610d63565b9250506020610f2d85828601610d63565b9150509250929050565b610f4081611292565b82525050565b610f4f816112a4565b82525050565b6000610f60826111b0565b610f6a81856111bb565b9350610f7a818560208601611307565b610f8381611459565b840191505092915050565b6000610f99826111b0565b610fa381856111cc565b9350610fb3818560208601611307565b80840191505092915050565b6000610fcc6005836111cc565b91507f6b697474790000000000000000000000000000000000000000000000000000006000830152600582019050919050565b611008816112b0565b82525050565b611017816112de565b82525050565b611026816112e8565b82525050565b60006110388284610f8e565b915081905092915050565b600061104e82610fbf565b9150819050919050565b600060208201905061106d6000830184610f37565b92915050565b60006020820190506110886000830184610f46565b92915050565b600060c08201905081810360008301526110a88189610f55565b90506110b7602083018861100e565b6110c4604083018761101d565b6110d1606083018661101d565b6110de6080830185610fff565b6110eb60a0830184610fff565b979650505050505050565b600060208201905061110b600083018461100e565b92915050565b6000606082019050611126600083018661100e565b81810360208301526111388185610f55565b9050611147604083018461100e565b949350505050565b6000604051905081810181811067ffffffffffffffff821117156111765761117561142a565b5b8060405250919050565b600067ffffffffffffffff82111561119b5761119a61142a565b5b601f19601f8301169050602081019050919050565b600081519050919050565b600082825260208201905092915050565b600081905092915050565b60006111e2826112de565b91506111ed836112de565b9250827fffffffffffffffffffffffffffffffffffffffffffffffffffffffffffffffff038211156112225761122161139d565b5b828201905092915050565b6000611238826112de565b9150611243836112de565b925082611253576112526113cc565b5b828204905092915050565b6000611269826112de565b9150611274836112de565b9250828210156112875761128661139d565b5b828203905092915050565b600061129d826112be565b9050919050565b60008115159050919050565b600061ffff82169050919050565b600073ffffffffffffffffffffffffffffffffffffffff82169050919050565b6000819050919050565b600063ffffffff82169050919050565b82818337600083830152505050565b60005b8381101561132557808201518184015260208101905061130a565b83811115611334576000848401525b50505050565b6000600282049050600182168061135257607f821691505b60208210811415611366576113656113fb565b5b50919050565b6000611377826112de565b9150611382836112de565b925082611392576113916113cc565b5b828206905092915050565b7f4e487b7100000000000000000000000000000000000000000000000000000000600052601160045260246000fd5b7f4e487b7100000000000000000000000000000000000000000000000000000000600052601260045260246000fd5b7f4e487b7100000000000000000000000000000000000000000000000000000000600052602260045260246000fd5b7f4e487b7100000000000000000000000000000000000000000000000000000000600052604160045260246000fd5b6000601f19601f8301169050919050565b61147381611292565b811461147e57600080fd5b50565b61148a816112a4565b811461149557600080fd5b50565b6114a1816112de565b81146114ac57600080fd5b5056fea26469706673582212204c6df46910ed96a5e02d68e8e1dea812a21473b2350909099762cb00192889a064736f6c63430008000033",
  "immutableReferences": {},
  "source": "pragma solidity >=0.8.0 <0.9.0;\nimport \"./zombiefactory.sol\";\n\nabstract contract KittyInterface {\n  function getKitty(uint256 _id) external virtual view returns (\n    bool isGestating,\n    bool isReady,\n    uint256 cooldownIndex,\n    uint256 nextActionAt,\n    uint256 siringWithId,\n    uint256 birthTime,\n    uint256 matronId,\n    uint256 sireId,\n    uint256 generation,\n    uint256 genes\n  );\n}\n\ncontract ZombieFeeding is ZombieFactory {\n\n  KittyInterface kittyContract;\n\n  modifier onlyOwnerOf(uint _zombieId) {\n    require(msg.sender == zombieToOwner[_zombieId]);\n    _;\n  }\n\n  function setKittyContractAddress(address _address) external onlyOwner {\n    kittyContract = KittyInterface(_address);\n  }\n\n  function _triggerCooldown(Zombie storage _zombie) internal {\n    _zombie.readyTime = uint32(block.timestamp + cooldownTime);\n  }\n\n  function _isReady(Zombie storage _zombie) internal view returns (bool) {\n      return (_zombie.readyTime <= block.timestamp);\n  }\n\n  function feedAndMultiply(uint _zombieId, uint _targetDna, string memory _species) internal onlyOwnerOf(_zombieId) {\n    Zombie storage myZombie = zombies[_zombieId];\n    require(_isReady(myZombie));\n    _targetDna = _targetDna % dnaModulus;\n    uint newDna = (myZombie.dna + _targetDna) / 2;\n    if (keccak256(abi.encodePacked(_species)) == keccak256(abi.encodePacked(\"kitty\"))) {\n      newDna = newDna - newDna % 100 + 99;\n    }\n    _createZombie(\"NoName\", newDna);\n    _triggerCooldown(myZombie);\n  }\n\n  function feedOnKitty(uint _zombieId, uint _kittyId) public {\n    uint kittyDna;\n    (,,,,,,,,,kittyDna) = kittyContract.getKitty(_kittyId);\n    feedAndMultiply(_zombieId, kittyDna, \"kitty\");\n  }\n}\n",
  "sourcePath": "D:\\CryptoZombies\\contracts\\zombiefeeding.sol",
  "compiler": {
    "name": "solc",
    "version": "0.8.0+commit.c7dfd78e.Emscripten.clang"
  },
  "schemaVersion": "3.4.3",
  "updatedAt": "2021-09-17T03:06:52.300Z",
  "networkType": "ethereum",
  "devdoc": {
    "kind": "dev",
    "methods": {
      "isOwner()": {
        "returns": {
          "_0": "true if `msg.sender` is the owner of the contract."
        }
      },
      "owner()": {
        "returns": {
          "_0": "the address of the owner."
        }
      },
      "renounceOwnership()": {
        "details": "Allows the current owner to relinquish control of the contract."
      },
      "transferOwnership(address)": {
        "details": "Allows the current owner to transfer control of the contract to a newOwner.",
        "params": {
          "newOwner": "The address to transfer ownership to."
        }
      }
    },
    "version": 1
  },
  "userdoc": {
    "kind": "user",
    "methods": {
      "renounceOwnership()": {
        "notice": "Renouncing to ownership will leave the contract without an owner. It will not be possible to call the functions with the `onlyOwner` modifier anymore."
      }
    },
    "version": 1
  }
}