{
  "contractName": "ZombieFactory",
  "abi": [
    {
      "anonymous": false,
      "inputs": [
        {
          "indexed": false,
          "internalType": "uint256",
          "name": "zombieId",
          "type": "uint256"
        },
        {
          "indexed": false,
          "internalType": "string",
          "name": "name",
          "type": "string"
        },
        {
          "indexed": false,
          "internalType": "uint256",
          "name": "dna",
          "type": "uint256"
        }
      ],
      "name": "NewZombie",
      "type": "event"
    },
    {
      "anonymous": false,
      "inputs": [
        {
          "indexed": true,
          "internalType": "address",
          "name": "previousOwner",
          "type": "address"
        },
        {
          "indexed": true,
          "internalType": "address",
          "name": "newOwner",
          "type": "address"
        }
      ],
      "name": "OwnershipTransferred",
      "type": "event"
    },
    {
      "inputs": [],
      "name": "isOwner",
      "outputs": [
        {
          "internalType": "bool",
          "name": "",
          "type": "bool"
        }
      ],
      "stateMutability": "view",
      "type": "function",
      "constant": true
    },
    {
      "inputs": [],
      "name": "owner",
      "outputs": [
        {
          "internalType": "address",
          "name": "",
          "type": "address"
        }
      ],
      "stateMutability": "view",
      "type": "function",
      "constant": true
    },
    {
      "inputs": [],
      "name": "renounceOwnership",
      "outputs": [],
      "stateMutability": "nonpayable",
      "type": "function"
    },
    {
      "inputs": [
        {
          "internalType": "address",
          "name": "newOwner",
          "type": "address"
        }
      ],
      "name": "transferOwnership",
      "outputs": [],
      "stateMutability": "nonpayable",
      "type": "function"
    },
    {
      "inputs": [
        {
          "internalType": "uint256",
          "name": "",
          "type": "uint256"
        }
      ],
      "name": "zombieToOwner",
      "outputs": [
        {
          "internalType": "address",
          "name": "",
          "type": "address"
        }
      ],
      "stateMutability": "view",
      "type": "function",
      "constant": true
    },
    {
      "inputs": [
        {
          "internalType": "uint256",
          "name": "",
          "type": "uint256"
        }
      ],
      "name": "zombies",
      "outputs": [
        {
          "internalType": "string",
          "name": "name",
          "type": "string"
        },
        {
          "internalType": "uint256",
          "name": "dna",
          "type": "uint256"
        },
        {
          "internalType": "uint32",
          "name": "level",
          "type": "uint32"
        },
        {
          "internalType": "uint32",
          "name": "readyTime",
          "type": "uint32"
        },
        {
          "internalType": "uint16",
          "name": "winCount",
          "type": "uint16"
        },
        {
          "internalType": "uint16",
          "name": "lossCount",
          "type": "uint16"
        }
      ],
      "stateMutability": "view",
      "type": "function",
      "constant": true
    },
    {
      "inputs": [
        {
          "internalType": "string",
          "name": "_name",
          "type": "string"
        }
      ],
      "name": "createRandomZombie",
      "outputs": [],
      "stateMutability": "nonpayable",
      "type": "function"
    }
  ],
  "bytecode": "0x60806040526010600155600154600a6200001a91906200014e565b600255620151806003553480156200003157600080fd5b50336000806101000a81548173ffffffffffffffffffffffffffffffffffffffff021916908373ffffffffffffffffffffffffffffffffffffffff16021790555060008054906101000a900473ffffffffffffffffffffffffffffffffffffffff1673ffffffffffffffffffffffffffffffffffffffff16600073ffffffffffffffffffffffffffffffffffffffff167f8be0079c531659141344cd1fd0a4f28419497f9722a3daafe3b4186f6b6457e060405160405180910390a3620002d1565b6000808291508390505b600185111562000145578086048111156200011d576200011c62000295565b5b60018516156200012d5780820291505b80810290506200013d85620002c4565b9450620000fd565b94509492505050565b60006200015b826200028b565b915062000168836200028b565b9250620001977fffffffffffffffffffffffffffffffffffffffffffffffffffffffffffffffff84846200019f565b905092915050565b600082620001b1576001905062000284565b81620001c1576000905062000284565b8160018114620001da5760028114620001e5576200021b565b600191505062000284565b60ff841115620001fa57620001f962000295565b5b8360020a91508482111562000214576200021362000295565b5b5062000284565b5060208310610133831016604e8410600b8410161715620002555782820a9050838111156200024f576200024e62000295565b5b62000284565b620002648484846001620000f3565b925090508184048111156200027e576200027d62000295565b5b81810290505b9392505050565b6000819050919050565b7f4e487b7100000000000000000000000000000000000000000000000000000000600052601160045260246000fd5b60008160011c9050919050565b610eff80620002e16000396000f3fe608060405234801561001057600080fd5b506004361061007d5760003560e01c80637bff0a011161005b5780637bff0a01146100f15780638da5cb5b1461010d5780638f32d59b1461012b578063f2fde38b146101495761007d565b80632052465e14610082578063528b7b8f146100b7578063715018a6146100e7575b600080fd5b61009c600480360381019061009791906109e0565b610165565b6040516100ae96959493929190610b0b565b60405180910390f35b6100d160048036038101906100cc91906109e0565b610275565b6040516100de9190610ad5565b60405180910390f35b6100ef6102a8565b005b61010b6004803603810190610106919061099f565b610377565b005b6101156103f8565b6040516101229190610ad5565b60405180910390f35b610133610421565b6040516101409190610af0565b60405180910390f35b610163600480360381019061015e9190610976565b610478565b005b6004818154811061017557600080fd5b906000526020600020906003020160009150905080600001805461019890610d6b565b80601f01602080910402602001604051908101604052809291908181526020018280546101c490610d6b565b80156102115780601f106101e657610100808354040283529160200191610211565b820191906000526020600020905b8154815290600101906020018083116101f457829003601f168201915b5050505050908060010154908060020160009054906101000a900463ffffffff16908060020160049054906101000a900463ffffffff16908060020160089054906101000a900461ffff169080600201600a9054906101000a900461ffff16905086565b60056020528060005260406000206000915054906101000a900473ffffffffffffffffffffffffffffffffffffffff1681565b6102b0610421565b6102b957600080fd5b600073ffffffffffffffffffffffffffffffffffffffff1660008054906101000a900473ffffffffffffffffffffffffffffffffffffffff1673ffffffffffffffffffffffffffffffffffffffff167f8be0079c531659141344cd1fd0a4f28419497f9722a3daafe3b4186f6b6457e060405160405180910390a360008060006101000a81548173ffffffffffffffffffffffffffffffffffffffff021916908373ffffffffffffffffffffffffffffffffffffffff160217905550565b6000600660003373ffffffffffffffffffffffffffffffffffffffff1673ffffffffffffffffffffffffffffffffffffffff16815260200190815260200160002054146103c357600080fd5b60006103ce82610495565b90506064816103dd9190610d9d565b816103e89190610c8f565b90506103f482826104da565b5050565b60008060009054906101000a900473ffffffffffffffffffffffffffffffffffffffff16905090565b60008060009054906101000a900473ffffffffffffffffffffffffffffffffffffffff1673ffffffffffffffffffffffffffffffffffffffff163373ffffffffffffffffffffffffffffffffffffffff1614905090565b610480610421565b61048957600080fd5b6104928161074a565b50565b600080826040516020016104a99190610abe565b6040516020818303038152906040528051906020012060001c9050600254816104d29190610d9d565b915050919050565b60046040518060c00160405280848152602001838152602001600163ffffffff1681526020016003544261050e9190610c39565b63ffffffff168152602001600061ffff168152602001600061ffff1681525090806001815401808255809150506001900390600052602060002090600302016000909190919091506000820151816000019080519060200190610572929190610841565b506020820151816001015560408201518160020160006101000a81548163ffffffff021916908363ffffffff16021790555060608201518160020160046101000a81548163ffffffff021916908363ffffffff16021790555060808201518160020160086101000a81548161ffff021916908361ffff16021790555060a082015181600201600a6101000a81548161ffff021916908361ffff1602179055505050600060016004805490506106279190610c8f565b9050336005600083815260200190815260200160002060006101000a81548173ffffffffffffffffffffffffffffffffffffffff021916908373ffffffffffffffffffffffffffffffffffffffff1602179055506001600660003373ffffffffffffffffffffffffffffffffffffffff1673ffffffffffffffffffffffffffffffffffffffff168152602001908152602001600020546106c79190610c39565b600660003373ffffffffffffffffffffffffffffffffffffffff1673ffffffffffffffffffffffffffffffffffffffff168152602001908152602001600020819055507f88f026aacbbecc90c18411df4b1185fd8d9be2470f1962f192bf84a27d0704b781848460405161073d93929190610b73565b60405180910390a1505050565b600073ffffffffffffffffffffffffffffffffffffffff168173ffffffffffffffffffffffffffffffffffffffff16141561078457600080fd5b8073ffffffffffffffffffffffffffffffffffffffff1660008054906101000a900473ffffffffffffffffffffffffffffffffffffffff1673ffffffffffffffffffffffffffffffffffffffff167f8be0079c531659141344cd1fd0a4f28419497f9722a3daafe3b4186f6b6457e060405160405180910390a3806000806101000a81548173ffffffffffffffffffffffffffffffffffffffff021916908373ffffffffffffffffffffffffffffffffffffffff16021790555050565b82805461084d90610d6b565b90600052602060002090601f01602090048101928261086f57600085556108b6565b82601f1061088857805160ff19168380011785556108b6565b828001600101855582156108b6579182015b828111156108b557825182559160200191906001019061089a565b5b5090506108c391906108c7565b5090565b5b808211156108e05760008160009055506001016108c8565b5090565b60006108f76108f284610be2565b610bb1565b90508281526020810184848401111561090f57600080fd5b61091a848285610d29565b509392505050565b60008135905061093181610e9b565b92915050565b600082601f83011261094857600080fd5b81356109588482602086016108e4565b91505092915050565b60008135905061097081610eb2565b92915050565b60006020828403121561098857600080fd5b600061099684828501610922565b91505092915050565b6000602082840312156109b157600080fd5b600082013567ffffffffffffffff8111156109cb57600080fd5b6109d784828501610937565b91505092915050565b6000602082840312156109f257600080fd5b6000610a0084828501610961565b91505092915050565b610a1281610cc3565b82525050565b610a2181610cd5565b82525050565b6000610a3282610c12565b610a3c8185610c1d565b9350610a4c818560208601610d38565b610a5581610e8a565b840191505092915050565b6000610a6b82610c12565b610a758185610c2e565b9350610a85818560208601610d38565b80840191505092915050565b610a9a81610ce1565b82525050565b610aa981610d0f565b82525050565b610ab881610d19565b82525050565b6000610aca8284610a60565b915081905092915050565b6000602082019050610aea6000830184610a09565b92915050565b6000602082019050610b056000830184610a18565b92915050565b600060c0820190508181036000830152610b258189610a27565b9050610b346020830188610aa0565b610b416040830187610aaf565b610b4e6060830186610aaf565b610b5b6080830185610a91565b610b6860a0830184610a91565b979650505050505050565b6000606082019050610b886000830186610aa0565b8181036020830152610b9a8185610a27565b9050610ba96040830184610aa0565b949350505050565b6000604051905081810181811067ffffffffffffffff82111715610bd857610bd7610e5b565b5b8060405250919050565b600067ffffffffffffffff821115610bfd57610bfc610e5b565b5b601f19601f8301169050602081019050919050565b600081519050919050565b600082825260208201905092915050565b600081905092915050565b6000610c4482610d0f565b9150610c4f83610d0f565b9250827fffffffffffffffffffffffffffffffffffffffffffffffffffffffffffffffff03821115610c8457610c83610dce565b5b828201905092915050565b6000610c9a82610d0f565b9150610ca583610d0f565b925082821015610cb857610cb7610dce565b5b828203905092915050565b6000610cce82610cef565b9050919050565b60008115159050919050565b600061ffff82169050919050565b600073ffffffffffffffffffffffffffffffffffffffff82169050919050565b6000819050919050565b600063ffffffff82169050919050565b82818337600083830152505050565b60005b83811015610d56578082015181840152602081019050610d3b565b83811115610d65576000848401525b50505050565b60006002820490506001821680610d8357607f821691505b60208210811415610d9757610d96610e2c565b5b50919050565b6000610da882610d0f565b9150610db383610d0f565b925082610dc357610dc2610dfd565b5b828206905092915050565b7f4e487b7100000000000000000000000000000000000000000000000000000000600052601160045260246000fd5b7f4e487b7100000000000000000000000000000000000000000000000000000000600052601260045260246000fd5b7f4e487b7100000000000000000000000000000000000000000000000000000000600052602260045260246000fd5b7f4e487b7100000000000000000000000000000000000000000000000000000000600052604160045260246000fd5b6000601f19601f8301169050919050565b610ea481610cc3565b8114610eaf57600080fd5b50565b610ebb81610d0f565b8114610ec657600080fd5b5056fea2646970667358221220513d4fe02e0ebe43768ca5f3ff702fddc1f987d327f10a83fa2b565cd3e2f78764736f6c63430008000033",
  "immutableReferences": {},
  "source": "pragma solidity >=0.8.0 <0.9.0;\nimport \"./ownable.sol\";\nimport \"./safemath.sol\";\n\ncontract ZombieFactory is Ownable {\n\n  using SafeMath for uint256;\n  using SafeMath32 for uint32;\n  using SafeMath16 for uint16;\n\n  event NewZombie(uint zombieId, string name, uint dna);\n\n  uint dnaDigits = 16;\n  uint dnaModulus = 10 ** dnaDigits;\n  uint cooldownTime = 1 days;\n\n  struct Zombie {\n    string name;\n    uint dna;\n    uint32 level;\n    uint32 readyTime;\n    uint16 winCount;\n    uint16 lossCount;\n  }\n\n  Zombie[] public zombies;\n\n  mapping (uint => address) public zombieToOwner;\n  mapping (address => uint) ownerZombieCount;\n\n  function _createZombie(string memory _name, uint _dna) internal {\n    zombies.push(Zombie(_name, _dna, 1, uint32(block.timestamp + cooldownTime), 0, 0));\n    uint id = zombies.length - 1; \n    zombieToOwner[id] = msg.sender;\n    ownerZombieCount[msg.sender] = ownerZombieCount[msg.sender] + 1;\n    emit NewZombie(id, _name, _dna);\n  }\n\n  function _generateRandomDna(string memory _str) private view returns (uint) {\n    uint rand = uint(keccak256(abi.encodePacked(_str)));\n    return rand % dnaModulus;\n  }\n\n  function createRandomZombie(string memory _name) public {\n    require(ownerZombieCount[msg.sender] == 0);\n    uint randDna = _generateRandomDna(_name);\n    randDna = randDna - randDna % 100;\n    _createZombie(_name, randDna);\n  }\n\n}\n",
  "sourcePath": "D:\\CryptoZombies\\contracts\\zombiefactory.sol",
  "compiler": {
    "name": "solc",
    "version": "0.8.0+commit.c7dfd78e.Emscripten.clang"
  },
  "schemaVersion": "3.4.3",
  "updatedAt": "2021-09-17T03:06:52.285Z",
  "networkType": "ethereum",
  "devdoc": {
    "kind": "dev",
    "methods": {
      "isOwner()": {
        "returns": {
          "_0": "true if `msg.sender` is the owner of the contract."
        }
      },
      "owner()": {
        "returns": {
          "_0": "the address of the owner."
        }
      },
      "renounceOwnership()": {
        "details": "Allows the current owner to relinquish control of the contract."
      },
      "transferOwnership(address)": {
        "details": "Allows the current owner to transfer control of the contract to a newOwner.",
        "params": {
          "newOwner": "The address to transfer ownership to."
        }
      }
    },
    "version": 1
  },
  "userdoc": {
    "kind": "user",
    "methods": {
      "renounceOwnership()": {
        "notice": "Renouncing to ownership will leave the contract without an owner. It will not be possible to call the functions with the `onlyOwner` modifier anymore."
      }
    },
    "version": 1
  }
}